:100000000C9434000C9451000C9451000C94510049
:100010000C9451000C9451000C9451000C9451001C
:100020000C9451000C9451000C9451000C9451000C
:100030000C9451000C949C000C9451000C945100B1
:100040000C9451000C9451000C9451000C945100EC
:100050000C9451000C9451000C9451000C945100DC
:100060000C9451000C94510011241FBECFEFD8E026
:10007000DEBFCDBF11E0A0E0B1E0E4EBF1E002C0F3
:1000800005900D92AC30B107D9F721E0ACE0B1E0BA
:1000900001C01D92AD30B207E1F70E94CE000C9472
:1000A000D8000C9400009093C5008093C40088E0B1
:1000B0008093C10086E08093C20008959091C000B3
:1000C00095FFFCCF8093C6000895EF92FF920F93A7
:1000D0001F93CF93DF93EC017C0100E010E0FE0161
:1000E00001900020E9F73197EC1BFD0B0E171F075D
:1000F00038F0DF91CF911F910F91FF90EF9008950D
:10010000F70181917F010E945E000F5F1F4FE7CFD3
:1001100010928000E1E8F0E01082109285001092C9
:100120008400808185608083EFE6F0E080818160DB
:1001300080830895259A08951F920F920FB60F920B
:1001400011242F933F934F935F936F937F938F93DC
:100150009F93AF93BF93EF93FF9380910C01811511
:10016000C1F02D9810920C0180E091E00E94650092
:10017000FF91EF91BF91AF919F918F917F916F917F
:100180005F914F913F912F910F900FBE0F901F9055
:1001900018952D9A81E080930C01E6CF0E949A0079
:1001A00087E690E00E9453000E9488007894FFCF79
:0401B000F894FFCFF1
:0C01B4004F766572666C6F770D0A0000D4
:00000001FF
